:100000000C945E000C9486000C9486000C94860080
:100010000C9486000C9486000C9486000C94860048
:100020000C9486000C9486000C9486000C94860038
:100030000C9486000C9486000C9486000C94860028
:100040000C946F020C9486000C94DF020C94B9029D
:100050000C9486000C9486000C9486000C94860008
:100060000C9486000C9486000000000024002700F9
:100070002A0000000000250028002B0004040404CE
:100080000404040402020202020203030303030342
:10009000010204081020408001020408102001021F
:1000A00004081020000000080002010000030407FB
:1000B00000000000000000001103FE0411241FBE18
:1000C000CFEFD8E0DEBFCDBF22E0AEE3B1E001C0AC
:1000D0001D92A335B207E1F711E0A0E0B1E0E8EF2F
:1000E000FEE002C005900D92AE33B107D9F710E0E3
:1000F000CDE5D0E004C02197FE010E945D05CC351E
:10010000D107C9F70E9499030C946F070C94000063
:10011000CF92DF92EF92FF920F931F93CF93DF93D3
:100120006C017A018B01C0E0D0E0CE15DF0589F0CB
:10013000D8016D918D01D601ED91FC910190F08176
:10014000E02DC6010995892B11F47E0102C021968C
:10015000ECCFC701DF91CF911F910F91FF90EF90EE
:10016000DF90CF900895089580E090E00895FC011D
:10017000538D448D252F30E0842F90E0821B930B0C
:10018000541710F0CF96089501970895FC01918DB2
:10019000828D981761F0828DDF01A80FB11D5D96E9
:1001A0008C91928D9F5F9F73928F90E008958FEF57
:1001B0009FEF0895FC01918D828D981731F0828D0B
:1001C000E80FF11D858D90E008958FEF9FEF089562
:1001D000FC01918D228D892F90E0805C9F4F821BC6
:1001E00091098F73992708958CEA91E00E94E800A5
:1001F00021E0892B09F420E0822F0895FC01848DF1
:10020000DF01A80FB11DA35ABF4F2C91848D90E040
:1002100001968F739927848FA689B7892C93A0891B
:10022000B1898C9180648C93938D848D981306C0D2
:100230000288F389E02D80818F7D80830895EF927D
:10024000FF920F931F93CF93DF93EC0181E0888F90
:100250009B8D8C8D981305C0E889F989808185FD77
:1002600024C0F62E0B8D10E00F5F1F4F0F73112768
:10027000E02E8C8DE8120CC00FB607FCFACFE8898F
:10028000F989808185FFF5CFCE010E94FE00F1CF74
:100290008B8DFE01E80FF11DE35AFF4FF0820B8FAB
:1002A000EA89FB898081806207C0EE89FF896083CB
:1002B000E889F98980818064808381E090E0DF9122
:1002C000CF911F910F91FF90EF900895CF93DF93FF
:1002D000EC01888D8823C9F0EA89FB89808185FD3E
:1002E00005C0A889B9898C9186FD0FC00FB607FC9F
:1002F000F5CF808185FFF2CFA889B9898C9185FFE0
:10030000EDCFCE010E94FE00E7CFDF91CF9108959F
:1003100080E090E0892B29F00E94F40081110C9478
:1003200000000895CF93DF93482F50E0FA01E05783
:10033000FF4F9491FA01E458FF4F2491222309F1D1
:1003400030E0220F331FF901E859FF4FA591B49116
:10035000F901EE58FF4FC591D49161110CC02FB730
:10036000F8948C91E92FE0958E238C939881E92362
:10037000E8832FBF06C08FB7F894EC91E92BEC937C
:100380008FBF440F551FFA01E25CFE4F6083DF917F
:10039000CF910895009769F0FC0101900020E9F7E2
:1003A0003197AF01481B590BBC018CEA91E00C94CA
:1003B000880080E090E00895CF93DF93E9E4F2E0D5
:1003C00044815581608171818CEA91E00E948800AE
:1003D000EC0188E191E00E94CA018C0F9D1FDF9122
:1003E000CF9108958F929F92AF92BF92CF92DF925A
:1003F000EF92FF920F931F93CF93DF93CDB7DEB7AA
:10040000A1970FB6F894DEBF0FBECDBF6C01990F58
:10041000EE08FF08F7FE31C0E091AC01F091AD01AC
:100420000190F081E02D6DE28CEA91E009958C015C
:1004300022273327A9012C193D094E095F0919A26A
:10044000CE0181967C019AE0892E912CA12CB12CB1
:10045000CA01B901A50194010E943B05605DF70145
:1004600062937F01211531054105510589F7CF01BF
:100470000E94CA01800F911F1DC0A701960119A2F9
:100480008E010F5D1F4F8AE0C82ED12CE12CF12C7C
:10049000CA01B901A70196010E943B05605DF80100
:1004A00062938F01211531054105510589F7CF016F
:1004B0000E94CA01A1960FB6F894DEBF0FBECDBF51
:1004C000DF91CF911F910F91FF90EF90DF90CF9030
:1004D000BF90AF909F908F9008950E945A071F92EF
:1004E0000F920FB60F9211242F933F938F939F93E8
:1004F000AF93BF938091A8019091A901A091AA0107
:10050000B091AB013091A70123E0230F2D3720F4E8
:100510000196A11DB11D05C026E8230F0296A11D5D
:10052000B11D2093A7018093A8019093A901A093E6
:10053000AA01B093AB018091A3019091A401A09175
:10054000A501B091A6010196A11DB11D8093A30143
:100550009093A401A093A501B093A601BF91AF9180
:100560009F918F913F912F910F900FBE0F901F90F1
:1005700018951F920F920FB60F9211242F933F934D
:100580004F935F936F937F938F939F93AF93BF939B
:10059000EF93FF938CEA91E00E94FE00FF91EF91B0
:1005A000BF91AF919F918F917F916F915F914F918B
:1005B0003F912F910F900FBE0F901F9018951F9293
:1005C0000F920FB60F9211242F938F939F93EF9357
:1005D000FF93E091BC01F091BD018081E091C201E7
:1005E000F091C30182FD12C090818091C5018F5F9F
:1005F0008F732091C601821751F0E091C501F0E0A0
:10060000E455FE4F958F8093C50101C08081FF9115
:10061000EF919F918F912F910F900FBE0F901F9090
:1006200018951092AF011092AE0188EE93E0A0E011
:10063000B0E08093B0019093B101A093B201B09368
:10064000B3018AE091E09093AD018093AC0185EC19
:1006500090E09093B9018093B80184EC90E090937E
:10066000BB018093BA0180EC90E09093BD01809330
:10067000BC0181EC90E09093BF018093BE0182ECBD
:1006800090E09093C1018093C00186EC90E090933C
:10069000C3018093C2011092C5011092C60110924D
:1006A000C7011092C80110924A021092490210929A
:1006B0004C0210924B0210924E0210924D026CE0CE
:1006C00070E080E090E00E949006009799F090938F
:1006D0004A02809349022BE030E030934C02209391
:1006E0004B0220914D0230914E02232BC1F4FC01AC
:1006F000108215C08091490290914A02009711F032
:100700000E94F80510924A021092490210924E027D
:1007100010924D0210924C0210924B0208952BE061
:1007200030E030934E0220934D026BE171E00C9467
:100730006807789484B5826084BD84B5816084BD87
:1007400085B5826085BD85B5816085BD80916E006F
:10075000816080936E0010928100809181008260A0
:1007600080938100809181008160809381008091DD
:1007700080008160809380008091B10084608093CC
:10078000B1008091B00081608093B00080917A00C8
:10079000846080937A0080917A00826080937A00EE
:1007A00080917A00816080937A0080917A008068DD
:1007B00080937A001092C100E091BC01F091BD01DC
:1007C00082E08083E091B801F091B9011082E0915C
:1007D000BA01F091BB0181E080831092C401E091E5
:1007E000C001F091C10186E08083E091BE01F091EB
:1007F000BF01808180618083E091BE01F091BF01E3
:10080000808188608083E091BE01F091BF0180818A
:1008100080688083E091BE01F091BF0180818F7D6F
:100820008083C2E061E08C2F0E949201CF5FCE30C6
:10083000C9F761E08EE00E94920161E08FE00E94C2
:10084000920161E080E10E94920161E081E10E94F9
:10085000920161E082E10E94920161E083E10E94E5
:10086000920161E084E10E94920161E085E10E94D1
:1008700092010E94DC018CEA91E00E94E800892B41
:1008800009F4B9C08CEA91E00E94C6008093A201ED
:100890008430D1F0883149F410929E0110929F016A
:1008A0001092A0011092A101E6CF90919F01909328
:1008B0009E019091A00190939F019091A10190932E
:1008C000A0018093A101D7CF80919E01833209F4CA
:1008D0007DC028F4813289F08232D9F0CCCF8432C5
:1008E00009F47DC08F3339F687E291E00E94CA0196
:1008F00088E191E00E94CA01BCCF61E08091A00133
:10090000811101C060E080919F0181540E94920199
:100910005AC041E08091A001811101C040E0809166
:100920009F01815490E0FC01EC55FF4F3491FC0194
:10093000E057FF4F2491FC01E458FF4FE491EE2370
:1009400009F43BC0332339F1333091F038F43130BE
:10095000A9F0323001F534B53F7D12C0373091F047
:100960003830A1F03430B9F4309180003F7D03C0BD
:10097000309180003F77309380000DC034B53F77D1
:1009800034BD09C03091B0003F7703C03091B00052
:100990003F7D3093B000F0E0EE0FFF1FEE58FF4FA9
:1009A000A591B4913FB7F894EC91411103C0209503
:1009B0002E2301C02E2B2C933FBF880F991FFC01C3
:1009C000E25CFE4F418380E090E012C0E0919F0125
:1009D000F0E0EE0FFF1FE454FF4F808108C0E0916C
:1009E0009F01F0E0EE0FFF1FE454FF4F818190E084
:1009F0000E94F20140CF0E9488013DCF80914902C0
:100A000090914A020C94F8052F923F924F925F9278
:100A10006F927F928F929F92AF92BF92CF92DF920E
:100A2000EF92FF920F931F93CF93DF93CDB7DEB773
:100A3000CA1BDB0B0FB6F894DEBF0FBECDBF099407
:100A40002A88398848885F846E847D848C849B845E
:100A5000AA84B984C884DF80EE80FD800C811B816C
:100A6000AA81B981CE0FD11D0FB6F894DEBF0FBE9B
:100A7000CDBFED010895A1E21A2EAA1BBB1BFD01FB
:100A80000DC0AA1FBB1FEE1FFF1FA217B307E4076D
:100A9000F50720F0A21BB30BE40BF50B661F771FC5
:100AA000881F991F1A9469F76095709580959095A5
:100AB0009B01AC01BD01CF010895EE0FFF1F059012
:100AC000F491E02D0994CF93DF938230910510F4D7
:100AD00082E090E0E0915102F091520220E030E09B
:100AE000C0E0D0E0309711F140815181481759079B
:100AF000C0F04817590761F482819381209719F05B
:100B00009B838A832BC0909352028093510226C00C
:100B10002115310519F04217530718F49A01BE0147
:100B2000DF01EF010280F381E02DDCCF21153105DB
:100B300009F1281B390B2430310590F412968D9160
:100B40009C9113976115710521F0FB0193838283BA
:100B500004C09093520280935102FD01329644C02A
:100B6000FD01E20FF31F81939193225031092D93E0
:100B70003C933AC020914F0230915002232B41F414
:100B800020910201309103013093500220934F02D3
:100B900020910001309101012115310541F42DB75B
:100BA0003EB74091040150910501241B350BE091A3
:100BB0004F02F0915002E217F307A0F42E1B3F0BF7
:100BC0002817390778F0AC014E5F5F4F24173507BF
:100BD00048F04E0F5F1F5093500240934F02819395
:100BE000919302C0E0E0F0E0CF01DF91CF91089552
:100BF0000F931F93CF93DF93009709F48CC0FC01F0
:100C00003297138212820091510210915202011503
:100C1000110581F420813181820F931F20914F02B1
:100C2000309150022817390779F5F0935002E0937C
:100C30004F0271C0D80140E050E0AE17BF0750F43A
:100C400012962D913C911397AD012115310509F1B3
:100C5000D901F3CF9D01DA01338322836081718151
:100C6000860F971F8217930769F4EC012881398159
:100C7000260F371F2E5F3F4F318320838A819B8150
:100C800093838283452B29F4F0935202E09351021F
:100C900042C01396FC93EE931297ED01499159913E
:100CA0009E01240F351FE217F30771F480819181B3
:100CB000840F951F029611969C938E938281938147
:100CC00013969C938E931297E0E0F0E0D801129671
:100CD0008D919C911397009719F0F8018C01F6CF34
:100CE0008D919C9198012E5F3F4F820F931F209111
:100CF0004F02309150022817390769F4309729F4D0
:100D0000109252021092510202C01382128210936A
:100D1000500200934F02DF91CF911F910F910895E0
:100D2000A0E0B0E0E6E9F6E00C940805EC010097DD
:100D300021F4CB010E946305B8C0FC01E60FF71F48
:100D40009C0122503109E217F30708F4ACC0D90125
:100D50000D911C91119706171707B0F0053011057A
:100D600008F49FC0C80104978617970708F499C034
:100D700002501109061B170B019311936D937C937D
:100D8000CF010E94F8058DC05B01A01AB10A4C0189
:100D9000800E911EA0915102B091520240E050E0AD
:100DA000E12CF12C109709F44AC0A815B905D1F52A
:100DB0006D907C901197630182E0C80ED11CCA141B
:100DC000DB0480F1A3014A195B096A0182E0C80EC5
:100DD000D11C1296BC9012971396AC91B5E0CB162D
:100DE000D10440F0B282A38351834083D9016D9333
:100DF0007C930AC00E5F1F4FC301800F911FF90142
:100E000091838083EB2DFA2FE114F10431F0D701A7
:100E10001396FC93EE93129744C0F0935202E09322
:100E200051023FC08D919C9111974817590708F4C2
:100E3000AC017D0112960D90BC91A02DB3CF809195
:100E40004F029091500288159905E1F44617570713
:100E5000C8F48091000190910101009741F48DB791
:100E60009EB74091040150910501841B950BE81732
:100E7000F907C8F4F0935002E0934F02F90171832F
:100E800060830FC0CB010E9463057C01009759F07D
:100E9000A801BE010E945F07CE010E94F805C701AC
:100EA00004C0CE0102C080E090E0CDB7DEB7EEE036
:100EB0000C94240581E090E0F8940C946F07FB01FA
:100EC000DC0102C001900D9241505040D8F70895C6
:100ED000FB01DC0101900D920020E1F7089510E084
:100EE000CDE5D0E004C0FE010E945D052196CE351F
:080EF000D107C9F7F894FFCF08
:100EF800000053028000000000001F018800B700B6
:100F08006601E800C600DA000D0A005665727369CA
:100F18006F6E20302E31005669727475616C4750BF
:0E0F2800494F206279204A6574304A4C4800D7
:107800000C94343C0C94513C0C94513C0C94513CE1
:107810000C94513C0C94513C0C94513C0C94513CB4
:107820000C94513C0C94513C0C94513C0C94513CA4
:107830000C94513C0C94513C0C94513C0C94513C94
:107840000C94513C0C94513C0C94513C0C94513C84
:107850000C94513C0C94513C0C94513C0C94513C74
:107860000C94513C0C94513C11241FBECFEFD8E036
:10787000DEBFCDBF11E0A0E0B1E0ECE9FFE702C060
:1078800005900D92A230B107D9F712E0A2E0B1E065
:1078900001C01D92AD30B107E1F70E942D3D0C945F
:1078A000CC3F0C94003C982F959595959595959582
:1078B000905D8F708A307CF0282F295A8091C0000B
:1078C00085FFFCCF9093C6008091C00085FFFCCF60
:1078D0002093C6000895282F205DF0CF982F809127
:1078E000C00085FFFCCF9093C6000895EF92FF92F1
:1078F0000F931F93EE24FF2487018091C00087FD22
:1079000017C00894E11CF11C011D111D81E4E8164B
:1079100082E4F8068FE0080780E0180770F3E09132
:107920000401F091050109958091C00087FFE9CF1E
:107930008091C6001F910F91FF90EF9008950E94D3
:10794000763C982F8091C00085FFFCCF9093C600B5
:1079500091362CF490330CF09053892F089597555D
:10796000892F08951F930E949F3C182F0E949F3CCF
:107970001295107F810F1F9108951F93182F882350
:1079800021F00E94763C1150E1F71F9108951F935A
:10799000182F0E94763C803249F0809103018F5F5E
:1079A000809303018530C1F01F9108958091C0003C
:1079B00085FFFCCF84E18093C6008091C00085FFE5
:1079C000FCCF1093C6008091C00085FFFCCF80E102
:1079D0008093C6001F910895E0910401F091050184
:1079E00009951F9108950E94763C803241F0809164
:1079F00003018F5F80930301853081F008958091AA
:107A0000C00085FFFCCF84E18093C6008091C00058
:107A100085FFFCCF80E18093C6000895E0910401CA
:107A2000F09105010995089540E951E08823A1F0FE
:107A30002D9A28EE33E0FA013197F1F721503040CA
:107A4000D1F72D9828EE33E0FA013197F1F7215064
:107A50003040D1F7815061F708953F924F925F9285
:107A60006F927F928F929F92AF92BF92CF92DF924E
:107A7000EF92FF920F931F93CF93DF93000080E16B
:107A80008093C4001092C50088E18093C10086E015
:107A90008093C2005098589A259A81E00E94143D24
:107AA00024E1F22E9EE1E92E85E9D82E0FE0C02ECA
:107AB00010E1B12EAA24A394B1E49B2EA6E58A2E50
:107AC000F2E57F2EE0E26E2E79E4572E63E5462E36
:107AD00050E5352E0E94763C8033B1F18133B9F107
:107AE000803409F46FC0813409F476C0823409F41B
:107AF00085C0853409F488C0803531F1823521F1A3
:107B0000813511F1853509F485C0863509F48DC0BC
:107B1000843609F496C0843709F403C1853709F423
:107B200072C1863709F466C0809103018F5F80932C
:107B30000301853079F6E0910401F0910501099582
:107B40000E94763C803351F60E94F33CC3CF0E94E2
:107B5000763C803249F78091C00085FFFCCFF092DF
:107B6000C6008091C00085FFFCCF9092C600809136
:107B7000C00085FFFCCF8092C6008091C00085FFC9
:107B8000FCCF7092C6008091C00085FFFCCF609250
:107B9000C6008091C00085FFFCCF5092C600809146
:107BA000C00085FFFCCF4092C6008091C00085FFD9
:107BB000FCCF3092C6008091C00085FFFCCFB09210
:107BC000C60088CF0E94763C863808F4BDCF0E945C
:107BD000763C0E94F33C7ECF0E94763C803809F4CC
:107BE0009CC0813809F40BC1823809F43CC1883942
:107BF00009F48FC080E00E94C73C6CCF84E10E94F2
:107C0000BD3C0E94F33C66CF85E00E94BD3C0E94D3
:107C1000F33C60CF0E94763C809306010E94763C44
:107C2000809307010E94F33C55CF0E94763C80333D
:107C300009F41DC183E00E94BD3C80E00E94C73C66
:107C400049CF0E94763C809309020E94763C809343
:107C5000080280910C028E7F80930C020E94763C79
:107C6000853409F415C18091080290910902892B8D
:107C700089F000E010E00E94763CF801E85FFE4FDA
:107C800080830F5F1F4F80910802909109020817AF
:107C9000190788F30E94763C803209F045CF809125
:107CA0000C0280FF01C16091060170910701660F0F
:107CB000771F7093070160930601A0910802B091AD
:107CC00009021097C9F0E8E0F1E09B01AD014E0F09
:107CD0005F1FF999FECF32BD21BD819180BDFA9A17
:107CE000F99A2F5F3F4FE417F50799F76A0F7B1F4B
:107CF00070930701609306018091C00085FFFCCF5F
:107D0000F092C6008091C00085FFFCCFB092C60003
:107D1000E1CE83E00E94C73CDDCE82E00E94C73CFA
:107D2000D9CE0E94763C809309020E94763C8093D3
:107D300008028091060190910701880F991F909386
:107D40000701809306010E94763C853409F4A6C0A1
:107D500080910C028E7F80930C020E94763C8032D0
:107D600009F0B8CE8091C00085FFFCCFF092C6002C
:107D7000609108027091090261157105B9F140E046
:107D800050E080910C02A82FA170B82FB27011C0E2
:107D9000BB2309F45CC0E0910601F0910701319624
:107DA000F0930701E09306014F5F5F4F46175707B7
:107DB000E8F4AA2369F3F999FECF209106013091E6
:107DC000070132BD21BDF89A90B58091C00085FFB2
:107DD000FCCF9093C6002F5F3F4F30930701209355
:107DE00006014F5F5F4F4617570718F38091C00099
:107DF00085FDE5CE8091C00085FFF8CFE0CE81E023
:107E00000E94C73C67CE0E94763C803209F08CCE3F
:107E10008091C00085FFFCCFF092C6008091C00029
:107E200085FFFCCFE092C6008091C00085FFFCCFAB
:107E3000D092C6008091C00085FFFCCFC092C600E2
:107E40008091C00085FFFCCFB092C60043CEE09188
:107E50000601F091070194918091C00085FFFCCF4D
:107E60009093C6009CCF80E10E94C73C33CE0E9415
:107E7000763C0E94763C182F0E94763C112309F430
:107E800083C0113009F484C08FE00E94C73C22CE29
:107E900080910C02816080930C02E5CE80910C02EF
:107EA000816080930C0259CF809107018823880F4D
:107EB000880B8A2180930B02809106019091070123
:107EC000880F991F90930701809306018091080203
:107ED00080FF09C080910802909109020196909359
:107EE000090280930802F894F999FECF1127E091D6
:107EF0000601F0910701C8E0D1E08091080290915D
:107F00000902103091F40091570001700130D9F34B
:107F100003E000935700E89500915700017001308D
:107F2000D9F301E100935700E89509901990009169
:107F3000570001700130D9F301E000935700E89534
:107F40001395103498F011270091570001700130FB
:107F5000D9F305E000935700E895009157000170B0
:107F60000130D9F301E100935700E895329602976A
:107F700009F0C7CF103011F00296E5CF112480919F
:107F8000C00085FFB9CEBCCE8EE10E94C73CA2CD19
:0C7F900085E90E94C73C9ECDF894FFCF0D
:027F9C00800063
:040000030000780081
:00000001FF
